:020000040800F2
:1000000068040020D5000008DD000008DF000008BB
:1000100000000000000000000000000000000000E0
:10002000000000000000000000000000E1000008E7
:100030000000000000000000E3000008E5000008E8
:10004000E700000800000000E7000008E7000008E3
:10005000E7000008E7000008E7000008E7000008E4
:1000600000000000E7000008E7000008E7000008C3
:10007000E7000008E7000008E700000800000000B3
:10008000E70000080000000000000000E700000892
:1000900000000000E7000008E7000008E700000893
:1000A000E7000008E7000008E7000008E700000894
:1000B000E700000800000000000000000000000051
:1000C0000348854600F014F800480047370300084D
:1000D000680400200448804704480047FEE7FEE724
:1000E000FEE7FEE7FEE7FEE709030008C10000089F
:1000F000064C0125064E05E0E36807CC2B430C3C7B
:1001000098471034B442F7D3FFF7DEFF40030008EE
:100110007003000803B40148019001BD45080020A8
:1001200070B55C495A4808605A485B494038C16319
:100130005A498163416B03221143416358490B685B
:10014000DB08DB005B1C0B60016829231B021943E1
:10015000016000E000BF01684905FBD505200007EC
:10016000C1680F239B06994309239B06C918C160E8
:1001700001684C4B19404C4BC9180160016AFF23C0
:100180001B02994311231B02C9180162416A474BA4
:100190001940474BC91841624649CB680324A40360
:1001A000A3430C011B19CB600B68CF242403A3438A
:1001B000212464031B190B608B683F4C23438B6025
:1001C0000B6A0F242406A3438C031B190B62334BC9
:1001D000EE3B8361E013886139493848C862394889
:1001E000002101610721416111218160364B3420DA
:1001F0001860374835490161364941611021C160B5
:10020000A1218160352159603049091D416232497F
:10021000816204240462324D3049E962314DE96261
:100220003249314DCD628A622849650324394D60D7
:10023000C0268E601A26CE600D260E602C494E68B0
:100240002E434E602A4940394E6820252E434E6089
:100250000D60FF25F435CD62264D85631E4D0C35AE
:10026000C5634263244A0263052098602148234AFB
:1002700040380261224AC260224A8260F7228262CA
:10028000826822438260086801221043086070BDC2
:100290000088160040100240020002180111000000
:1002A0000020024000003CC0A5018229F00FFFFFA2
:1002B000022000000004005003300300E8FD0000AD
:1002C000002C01400030024000080240244400405D
:1002D00000000240580000200C000020FFFF00003A
:1002E000004801400020004060EA00000044014056
:1002F0004004004040240140A125000000020040CD
:10030000DB0421000100001001200249C0068860C2
:100310007047000000ED00E002E008C8121F08C1AD
:10032000002AFAD170477047002001E001C1121F76
:10033000002AFBD17047FFF7F3FEFFF7EBFE00004A
:100340007003000800000020580000001803000897
:10035000C8030008000800208803000018030008F4
:10036000C8030008580000201004000028030008FB
:100370001A0041000000E8040000000013579BDF52
:100380000000000000000000000000000000A000CD
:100390002401A8012C02B0023403B8033C04C004B9
:1003A0004405C8054C06D00640077800E8006C01FB
:1003B000F0017402F8027C030004840408058C0533
:1003C0001006940618070000D44910B508468A782C
:1003D0000C3002700A78C988D2004B055B0F1A43B3
:1003E00042708170CE4A0021D16104211162CD4951
:1003F0008B68012423438B6003681B021B0A0B607C
:1004000000BF0968C1709120D06110BD0EB5C4480D
:10041000C06885B2681F07073F0FC34800214162CB
:100420000160BE4C0320E0700846C0490860C04A25
:100430004A6200206070BF487F1C06E003681026F7
:100440003343036000BF00BF00BF0368DB06F5D580
:100450000126B60303685B0406D4036833430360D4
:1004600000BF00BF00BFF5E72069002803D00020CF
:100470002061FFF7A9FFAD4E706AAD49884208D3ED
:10048000E078002806D0022876D0012874D003280E
:100490006FD087E0A149183108884B88984201D174
:1004A000012200E0002289888C46604501D10121AB
:1004B00000E000210A40122801D9012100E00021BA
:1004C0000A40162801D2012100E000210A421DD075
:1004D0000220E070002070620920306060780028FF
:1004E00060D0401EC0B28D49607040003A31085A59
:1004F000E080FFF769FF00208F49207148620122E8
:100500000A6010214A1B8D4988544BE0984201D162
:10051000012200E00022604501D1012100E000211C
:100520000A40282801D9012100E000210A402C2896
:1005300001D2012000E0002002421BD060780D288B
:1005400013D2401CC0B27549607040001E31085A79
:10055000E080FFF739FF00207749207148620122CF
:100560000A6010214A1B754988540120E070AEE0F2
:1005700002E087E0002014E06848183001884288D3
:10058000914279D101228088814277D101200240B5
:100590003F2975D000200242ECD00020E07070624C
:1005A00009203060604E716A6548814209D9002097
:1005B000306070625A48C06885B2681F07073F0FF5
:1005C0007F1C5D48406A5F49884207D9207900282E
:1005D00072D0594801214162002101605048C16830
:1005E000A94200D140E73168002972D0C068B84202
:1005F000F8D11020401BC1B25048425C474814302B
:10060000027000924A1C13074C4A1B0FD25C4270C6
:1006100002928A1C1307494A1B0FD25C8270C91CC4
:1006200001920A074549120F8A5C3E49C2709446FE
:100630008A6801231A438A6000680002000A086081
:1006400000BF0868C0B28445CCD100203060706221
:100650003348C068019985B2681F070702983F0FA9
:100660004007400D0843208100987F1CC22837D0E6
:100670003BE001E002E003E0002284E7002086E79F
:10068000012088E72548183001884288914201D12D
:10069000012200E000228088814201D1012000E097
:1006A00000200240122901D9012000E00020024070
:1006B0002C2902D2012001E00CE00020024200D1EE
:1006C00058E72148E0800F202070FFF77DFE0020D2
:1006D00065E720E0FFF778FE1749012048627DE7D3
:1006E0001A49237100220A604B62E0780328ABD1DB
:1006F0000098C328A8D11F20207013480F38E0802D
:100700004420A070FFF760FE4120A0700D206070B3
:100710000020E070A8E609203060A5E60000002077
:10072000000002400030024000200040004801402C
:1007300050C3000000700040002C01405800002011
:1007400088130000102700006C07000000440140DF
:04000005080000C12E
:00000001FF
