:020000040800F2
:1000000050040020D5000008DD000008DF000008D3
:1000100000000000000000000000000000000000E0
:10002000000000000000000000000000E1000008E7
:100030000000000000000000E3000008E5000008E8
:10004000E700000800000000E7000008E7000008E3
:10005000E7000008E7000008E7000008E7000008E4
:1000600000000000E7000008E7000008E7000008C3
:10007000E7000008E7000008E700000800000000B3
:10008000E70000080000000000000000E700000892
:1000900000000000E7000008E7000008E700000893
:1000A000E7000008E7000008E7000008E700000894
:1000B000E700000800000000000000000000000051
:1000C0000348854600F014F8004800472303000861
:1000D000500400200448804704480047FEE7FEE73C
:1000E000FEE7FEE7FEE7FEE7F5020008C1000008B4
:1000F000064C0125064E05E0E36807CC2B430C3C7B
:1001000098471034B442F7D3FFF7DEFF2C03000802
:100110005C03000803B40148019001BD45080020BC
:10012000F0B5D1205749C0020860564856494038BA
:10013000C163564B8363416B0322114341635449AE
:100140000A68D208D200521C0A60524A116803247D
:100150006402A143FF31FF310231116001681922AD
:1001600012021143016000E000BF01684905FBD5A0
:1001700005200007C1680F229206914309229206CA
:100180008918C1600168444A1140444A89180160D5
:10019000016A434A1140434A89180162416A424A4E
:1001A0001140424A891841624149CA680324A403A4
:1001B000A2430C011219CA600A68CF242403A24387
:1001C0002124640312190A608A683A4C22438A6027
:1001D0000A6A0F242406A2438C0312190A623649C4
:1001E00081610021354A3648D1701F24C462046AF7
:1001F0001C4304620123324CDB03403463606824F7
:100200008461304DC561012505602F4801610726D5
:100210004661112686602D4E342030602D482C4FCB
:1002200007612D4F47611027C760A12787603527D9
:100230007760274E361D46621646103686620426C3
:1002400006622748254EC6622648C6622648C66210
:10025000264E86624162016025484E1EC662FF2618
:1002600002368661202606620326866005601848ED
:1002700024384360C0238360C4600D2303609181F0
:10028000F0BD000040100240020002180111000001
:10029000002002400070004000003CC0A5A182295F
:1002A000FF00FF0000110011F00FFFFF022000000F
:1002B0000004005003300300031010000000002071
:1002C000002C014068680000003002400008024035
:1002D000244400400000024040000020FFFF0000D6
:1002E00000480140002000400044014023F4000089
:1002F0000004004001200249C006886070470000E9
:1003000000ED00E002E008C8121F08C1002AFAD17F
:1003100070477047002001E001C1121F002AFBD185
:100320007047FFF7FDFEFFF7F5FE00005C030008D5
:100330000000002040000000040300089C030008A7
:100340000008002040060000040300089C03000889
:100350004000002010040000140300080F2041009A
:100360000000E804000000000000000013579BDFBD
:100370000000000000010302050604000000000068
:1003800000FFFF0000FF0000FFFF0000FF00000073
:10039000FF00FF000000FF0000000000FE4910B554
:1003A00008468A78103002700A78C988D2004B0556
:1003B0005B0F1A4342708170F84A0021D161042119
:1003C0001162F7498B68012423438B6003681B0289
:1003D0001B0A0B6000BF0968C1709120D06110BD7D
:1003E0000CB5EE48C068EF4984B2601F05072D0FB9
:1003F000002048620860EC4908600246EB4842630E
:100400000022C263E948403002604A621646012079
:10041000E74A40069061052000070068E54A104061
:100420000522120710601068E24AD24310430522E9
:1004300012071060DE4802680F2000038243DC4888
:1004400002600068032212031043D94A10600020A2
:10045000D14A6D1C1071D84806E0026810231A4377
:10046000026000BF00BF00BF0268D206F5D50122BE
:10047000920303685B0406D403681343036000BF60
:1004800000BF00BFF5E7C44F7879002803D00020F3
:100490007871FFF783FFC948406A00B278813979E3
:1004A000012953D1052109070A69E0231A40B24204
:1004B0004CD00A6916461E40BB4B002159621106FA
:1004C000B54A490F1832515C0822BA5E831A9C461D
:1004D0000D2B17DA131A0D2B14DA002904D0002281
:1004E000062902D9012301E0012200231A4301D089
:1004F000002103E08A00A84920318958AA4AB04B5C
:100500005362BAE0904277DA121A782A59DD00294C
:1005100004D00022062902D9012301E00122002390
:100520001A4301D0002183E0022906D98A009A49A2
:10053000203151188039896F7AE08A00964920313C
:100540005118096974E0994A4032116096494A6A23
:100550009C498A427BD9944A00211160934B59638C
:10056000D963924B4033196051620122904B52067D
:100570000E469A610522120712688E4B1A40052317
:100580001B071A601A688B4BDB431A4305231B07B2
:100590001A60874A12680F231B039A43844B1A6020
:1005A0001A6803231B031A43814B1A60397108220E
:1005B000BA5E831A0F2B70DA121A0F2A6DDAC22272
:1005C0006CE0002904D00022062902D9012301E0B1
:1005D000012200231A4301D000214EE0012907D94E
:1005E0008A006D49203151188039C96F45E003E018
:1005F00069492031896940E06246782A28DD00296E
:1006000004D00022062902D9012301E0012200239F
:100610001A4387D1052905D28A005F492031511834
:10062000896805E08A005C49203151188039096FDA
:100630007B780A469C461A405C4B5A630A0A63461A
:100640001A405A4BDA63090C634619407BE749E0CC
:10065000002904D00022062902D9012301E0012249
:1006600000231A43B8D1062904D28A004A4920310E
:10067000511801E04849203149687A784B4B5208BB
:1006800094460A405A630B0A62461340474AD363B2
:10069000090C6246114056E7FFE7C3223E4B103378
:1006A0001A707A78D300C204520F13433A4A1032B8
:1006B000537083109370394BD961384904230B620E
:1006C0003749896801231943354B996011680B023A
:1006D00033491B0A0B6000BF31490968D1702F49AB
:1006E0009122CA612F494B6A374A934209D90022A5
:1006F0000A604A62294AD26894B2621F15072D0F18
:100700006D1C254A1279002A13D1304A526AE1231E
:100710001B029A420DD9294A526A1F4F0023BA81FF
:100720002A4A13605362FB7001231B05052212073E
:1007300093611A4AD368A34200D1A4E60B68002B48
:100740007ED0D268AA42F8D11022121B204B124F41
:10075000D2B29B5C14373B700193531C1F071C4B98
:100760003F0FDB5D0C4F9C4614377B70931C1F07BB
:10077000174B3F0FDB5D084F1437BB70D21C009343
:100780001207134B120F9B5C3A46D370044A9E46E5
:10079000936801273B431DE0000000200000024059
:1007A000003002400020004000480140002C014081
:1007B00000040050F0FF3CFC0070004000040040CA
:1007C000C8AF000060EA0000881300000044014048
:1007D000400000209360774B1B681B021B0A1360CC
:1007E00000BF1268D2B29645A7D100220A604A62C1
:1007F0007149C9688CB2611F0D072D0F01996D1CDD
:10080000412925D044297CD0452996D16949C52262
:10081000091F0A700A46103A5278C304D2005B0FCF
:100820001A434A7080108870634A0020D061042007
:1008300010626248836801273B4383600B6800E0D5
:10084000B5E01B021B0A036000BF0068C87055E0DA
:10085000584F6146C908143F797061464907009AAC
:10086000490D1143890081424CD0398154480121FE
:1008700041624215534882613971534909220A6025
:10088000052109070A68514B1A400A600A68504B53
:100890001A430A6001680F22120391430160016844
:1008A0000122520311430160F87800280DD1102075
:1008B0001907886101204249F870086000BF00BF35
:1008C00000BF00BFB989434841623A48C121001FB7
:1008D00001706146417000998170374A0021D161F1
:1008E0000421116235498B6801273B438B60036803
:1008F0001B021B0A0B6000BF0968C1709120D06108
:10090000C1E507E02B48C221001F0170614641701C
:100910008270E2E727496046C00814394870604693
:100920004007420D0098024392002A480A81426221
:100930000020254A0871106027494863C86326498A
:1009400040310860506201221E49520606468A6103
:1009500005273F073A681D4B1A403A603A68DB4367
:100960001A433A600A680F231B039A430A600A6815
:1009700003231B031A430A600E4AC421121F11707D
:1009800061465170009991700B49C861042008625A
:100990000A48836801273B43836013681B021B0AD4
:1009A000036000BF0068D0709120C8616BE509202A
:1009B000086068E51400002000000240003002409A
:1009C000004401400004005000480140F0FF3CFC9E
:0C09D0000500820100040040002C0140E2
:04000005080000C12E
:00000001FF
